:10100000000004200D130000351300005587000078
:10101000391300003B1300003D13000000000000E6
:101020000000000000000000000000003F1300006E
:1010300041130000000000004313000045130000AE
:10104000A1DF00005D630100EDE000004713000038
:1010500047130000471300007DD80000471300002D
:101060004713000047130000471300004713000018
:101070004713000047130000471300004713000008
:1010800047130000A53A0000471300004713000073
:10109000FD690100453B00004713000047130000B5
:1010A00047130000471300004713000047130000D8
:1010B000471300004713000000000000000000007C
:1010C00047130000471300004713000047130000B8
:1010D00047130000471300004713000065C00000DD
:1010E0004713000047130000816B0200000000005E
:1010F000000000004713000000000000471300003C
:1011000000000000000000000000000000000000DF
:1011100000000000000000000000000000000000CF
:1011200000000000000000000000000000000000BF
:1011300000000000000000000000000000000000AF
:10114000000000000000000000000000000000009F
:10115000000000000000000000000000000000008F
:10116000000000000000000000000000000000007F
:10117000000000000000000000000000000000006F
:10118000000000000000000000000000000000005F
:10119000000000000000000000000000000000004F
:1011A000000000000000000000000000000000003F
:1011B000000000000000000000000000000000002F
:1011C000000000000000000000000000000000001F
:1011D000000000000000000000000000000000000F
:1011E00000000000000000000000000000000000FF
:1011F00000000000000000000000000000000000EF
:10120000044B05481B1A062B02D9044B03B118479F
:10121000704700BFF3010020F00100200000000033
:1012200005490648091A891001EBD171491002D00D
:10123000034B03B118477047F0010020F001002074
:101240000000000010B5064C237843B9FFF7D8FF23
:10125000044B13B10448AFF300800123237010BD89
:10126000D803002000000000789F030008B5084B59
:101270001BB108490848AFF300800848036813B958
:10128000BDE80840CCE7064B002BF9D09847F7E7BC
:1012900000000000DC030020789F0300EC01002028
:1012A00000000000134B002B08BF114B9D46A3F517
:1012B000803A00218B460F461148124A121A26F036
:1012C000C9F90D4B002B00D098470C4B002B00D0D8
:1012D00098470020002104000D000B4826F020F85C
:1012E00026F052F82000290010F0EEFA26F01EF841
:1012F00000000800000004200000000000000000C2
:10130000D803002060AD0120557302000649074A4A
:10131000074B9B1A03DD043BC858D050FBDC10F090
:1013200045FBFFF7BFFF000094A203000800002068
:10133000D8030020FEE7FEE7FEE7FEE7FEE7FEE754
:10134000FEE7FEE7FEE7FEE7F0B595B000241546A0
:101350000F4608461E4608F06FFB38462346082213
:10136000089505A91A9D09960D950A948DF82C40AB
:101370000C9408F0DDFB9DF81430079806998DF861
:10138000114003F00302012A0290039128D0022A9F
:1013900004D0384608F054FB15B0F0BDBDF8165027
:1013A000C3F3C2038DF81030C5F389150826082D44
:1013B0002C4628BF0824334622460EA9384608F09A
:1013C000B7FB2D1B214608AB02AA0EA8264401F04C
:1013D0008FFE002DEBD1384608F032FB15B0F0BD82
:1013E000BDF81460059DC6F38316C3F3C204B200B2
:1013F0000EA9384608238DF81040C5F3952508F04E
:1014000097FB08AB0093324628460EA902AB01F0C9
:10141000C9FDBEE7014B01221A7070473804002055
:10142000704700BF00B583B0044B0093044A4023CB
:10143000FFF78AFF03B05DF804FB00BF451400000E
:10144000F803002038B50F480F4D03780F4CEB5CC4
:1014500000252570D2B253B90C300DF075F958B98A
:101460000B4B1B7813B12378002BFCD038BD043014
:101470000DF09CFC0028F3D0064A532102F0C6F977
:10148000EEE700BF0800002034AB01203804002044
:10149000F403002018A5020070B51448144A03781C
:1014A000D35C88B0EBB90C300DF0A4F8114D0FCD22
:1014B0006C460FC495E80F0008AD062645F8206D70
:1014C00084E80F0029460022084809F06DF818B199
:1014D000094A432102F09AF9084B00221A7008B019
:1014E00070BD04300DF0B4FBE0E700BF0800002041
:1014F00034AB0120ECA4020018A50200F403002084
:1015000070B50E4D0FCD88B06C460FC495E80F0036
:1015100008AD062645F8206D84E80F002946084AE4
:10152000084809F041F818B1074A432102F06EF962
:10153000064B01221A7008B070BD00BFECA4020077
:10154000151400000800002018A50200F403002074
:1015500008B5FFF7D5FF0421084801F099FC0028E1
:1015600003DB074B01225A7108BD0649482007F0EA
:10157000DDF9034B01225A7108BD00BF9CA1030095
:101580001C000020ACA50200064B8B6004284FF025
:101590000003CB604B609CBF034B53F820300B60C3
:1015A000704700BFD8A90200FCA90200C368DB682D
:1015B00000225A71704700BFC368DB6801225A716C
:1015C000704700BF30B40E4B0E4D0F4C8C60ED1ABF
:1015D00000222D09CA604A600A600BD003EB051592
:1015E000DC682479FF2C02D0904205D00132103300
:1015F000AB42F5D130BC70479B680B6030BC704784
:101600009CA10300BCA1030010AA0200012903460B
:1016100004D08168D1F8941A890704D500221846AD
:10162000114613F05FBB00B583B013685168054ADB
:10163000019100920221044A11F082FE03B05DF88C
:1016400004FB00BF7CA6020070A602008368D3F8EA
:10165000943A9B0733D42DE9F0471B4C1B4E361BA5
:10166000360982B028D00746DFF868A0DFF8689016
:10167000DFF8688004EB06160DE05D79A368CDF80D
:1016800004E0002D14BF55464D460095103411F06E
:1016900057FEA64210D0E36893F804E0BEF1FF0FB6
:1016A00042464FF008013846E7D1A368084A103493
:1016B00011F046FEA642EED102B0BDE8F08700224E
:1016C000114613F00FBB00BF9CA10300BCA1030097
:1016D000A8A6020094A602009CA60200C8A60200CA
:1016E000F0B53548354D85B007F024FA344807F099
:1016F00021FA6B68AE6803EA0600C11C05EB8102A3
:1017000015F8214014F004040ED0117801F0030103
:1017100001293BD0022903F1020700F1030126D081
:1017200005EB8102002CF0D105EB80005A1CC1684A
:101730000191324005EB820201F00301D26802926E
:10174000012903F1020427D002292DD1BDF806306A
:10175000BDF80A60C3F38913033304EB93041848FC
:1017600007F0F6F900B16C60304605B0F0BD538863
:1017700007EB931306EA0300C11C05EB810215F881
:10178000214004F00404002CBFD1CDE711880233BE
:10179000C1F383110B44EDE7BDF80430BDF80A60D6
:1017A000C3F383131C44DAE706494FF4BF7007F014
:1017B000BDF80026D3E700BF244500200C0500201B
:1017C0002045002090A802002DE9F041104C114D59
:1017D00052F8046C2D1B2D09074610D004EB05159B
:1017E00002E01034AC420AD0A168304626F00CFC6E
:1017F0000028F6D1E36801225A71BDE8F081334632
:101800003846054A0221BDE8F04111F099BD00BFFC
:101810009CA10300BCA1030058A602002DE9F041E1
:101820000F4C104D52F8046C2D1B2D0907460FD09C
:1018300004EB051502E01034AC4209D0A168304633
:1018400026F0E2FB0028F6D1E3685871BDE8F0818C
:1018500033463846044A0221BDE8F04111F070BD1C
:101860009CA10300BCA1030058A6020070B4114C57
:10187000114E124A8A60A41B0023E408CB604B601F
:101880000CD00F4D2A88904204D110E035F8232067
:10189000904206D001339C42F8D100240C6070BC09
:1018A000704706EBC3031C680C6070BC704733467E
:1018B000F9E700BF9CA1030024A00300D8A90200FF
:1018C000180200202DE9F04FCB68384EDFF8089160
:1018D0005B79A6EB090685B08A46F6088046002BA0
:1018E0005FD0334A334B0821404611F029FD324A7C
:1018F0000821404611F024FD8EB3304DB70000247E
:101900000023EA5AA24230D004339F42F9D12C4935
:10191000002335F82320A24237D001339E42F8D16C
:101920000020DFF89CC08646002335F82320A24221
:1019300018D001339E42F8D10023224ADFF89CB030
:101940000091864588BF5A460292CDF804C0013402
:101950001D4A0821404611F0F3FCB442D0D105B035
:10196000BDE8F08F59F83330E7E7DAF80C20174973
:101970001279595802EB4202072393400B40D3409F
:10198000DBB2134A52F82310C2E709EBC30393F802
:1019900006E00F4B7046032828BF032053F820C0F1
:1019A000C2E70C4A022111F0CBFC9AE79CA103008C
:1019B0004CA9020040A902006CA9020018020020F4
:1019C00020A90200E8A60200ACA90200D40200206F
:1019D000E8A902002CA9020024A0030028A9020003
:1019E00013460A46C168FFF76DBF00BF2DE9F047F7
:1019F000124C134D52F8046C2D1B2D09804615D046
:101A00001746894604EB051502E01034A5420DD0B7
:101A1000A168304626F0F8FA0028F6D13B464A463F
:101A200021464046BDE8F047FFF74CBF33464046ED
:101A3000044A0221BDE8F04711F082BC9CA10300DA
:101A4000BCA1030058A6020002B970472DE9F04F6F
:101A50009846CB687F491C7985B015461646834663
:101A60000722D8F8000026F067FD002840F0D88053
:101A7000012D00F0E380784D81460A2255F8041BC1
:101A8000D8F8040026F058FD70B109F10109B9F148
:101A9000050FF2D1D8F80430704A5846022105B03B
:101AA000BDE8F04F11F04CBC5FFA89F3022E0093B1
:101AB0002BD16B4D6B4B5B1BDB0823D004EB440439
:101AC00007224FEA830802FA04F30193009B664F52
:101AD000DFF898A1A34002932E460024A946B379CB
:101AE000009DAB4252464FF00201584654D259F87D
:101AF0001430043411F024FCA04506F1080607F167
:101B00000407ECD105B0BDE8F08FFBD94FF0020A15
:101B100004EB44040723A340514D524F0293009B12
:101B2000CDF804B07F1BA34008EB8A08FF0803939D
:101B3000B146D8F8006047B3AB46002404E0013456
:101B4000A7420BF1080B1ED02022314655F8340075
:101B500026F0F2FC0028F2D1A74214D09BF8062010
:101B6000009B9A423BD2DBF80030404A01980221A8
:101B700011F0E6FB0AF1010AD14508F10408D8D1B9
:101B800005B0BDE8F08FD8F80060394A01983346B7
:101B9000022111F0D5FBEDE73A68029B0199354827
:101BA00053400B405340C3F3C202C3F382118A4235
:101BB00038BF0A4603F007018A4238BF0A46C3F31A
:101BC000422120188A4204F1040438BF0A464445E1
:101BD00006F1080647F8043B428080D192E7224B89
:101BE000029853F82420039B22491F4E5340034080
:101BF0005340C3F3C202C3F38210824238BF02468D
:101C000003F00700824238BF0246C3F3422001EBD3
:101C10008401824238BF024646F824304A80A9E750
:101C200008221549D8F8000026F086FC70B9012D6D
:101C300000903FF43EAF4FF0010A69E70F4A584663
:101C4000022105B0BDE8F04F11F07ABBD8F80030A2
:101C50000B4A22E7F8A70200E8A902004CA80200FC
:101C600024A003009CA10300D40200206CA8020061
:101C700038A802001802002018A8020000A80200DC
:101C800020A8020013460A46C168FFF7DDBE00BF68
:101C90002DE9F047124C134D52F8046C2D1B2D0901
:101CA000804615D01746894604EB051502E010342E
:101CB000A5420DD0A168304626F0A6F90028F6D13D
:101CC0003B464A4621464046BDE8F047FFF7BCBECA
:101CD00033464046044A0221BDE8F04711F030BBCC
:101CE0009CA10300BCA1030058A602002DE9F84FF7
:101CF00044F22001244B254844F2180644F214040F
:101D0000002240F6FF759A511A605A609D601A5180
:101D10005A5407F02DFE834610B15846BDE8F88F9F
:101D2000DFF87C801A4F1B48A7EB080708F026FA5B
:101D3000FF08F2D0DFF860A05E4600252C4608EBD5
:101D4000C609A6424FF0140208D058F83410D9F84A
:101D5000000026F0F1FB0028C8BF01350134A7427E
:101D6000EFD12AF826500136B742E6D10A4B0B498B
:101D70000AEB870700225A8004339F4241F8042B64
:101D8000F9D15846BDE8F88F0C05002054A2030095
:101D90009CA10300CCA9020018020020D40200205C
:101DA00024A0030021B9114B03EBC0000068704769
:101DB00030B40F4A0D4C121BD2080CD00D4D2B889D
:101DC000834210D0002303E035F82310814205D070
:101DD00001339A42F8D1002030BC704704EBC300B5
:101DE000006830BC70472046FAE700BF24A003001B
:101DF0009CA1030018020020094B013903EBC0002D
:101E000003290BD8DFE801F002080604022070471E
:101E10004079704700797047042070470020704770
:101E200024A0030030B5204A44F2200383B0D35CE1
:101E3000044613BB18B326F0E3FA02AA013042F8B5
:101E4000080D012301A9194808F0A6F90546B0B903
:101E50002146009A019825F0FFFA9DE80C001344F2
:101E6000124803F8015C009908F0F2F950B90099A2
:101E70000E4808F007FA80B9019803B030BD002081
:101E800003B030BD0A4940F20A2006F04FFD009928
:101E9000064808F0F7F90028EED0054940F20E2078
:101EA00006F044FDE8E700BF0C050020CCA90200C5
:101EB00090A802002DE9F04FA84C94E80C009A423B
:101EC00085B000F0E18044F218030022E250BFF335
:101ED0004F8F6368A56803EA0501CA1C04EB8206FC
:101EE00014F8222050071BD5D4F800E09C4F32781C
:101EF00002F00302012A49D0022A03F1020202D1B0
:101F0000738802EB931305EA03013868CA1C04EBDB
:101F1000820628B99E453FD914F822205207E6D4FC
:101F200004EB81015A1C2A40CE68019604EB820220
:101F3000F6B2D268029206F00302022A03F1020905
:101F40002FD0012A00F0A48044F21003E5583DB1DF
:101F50002B6828469B689847EB681D68002DF7D1D1
:101F6000804B5B88012B09D97F48804B8049C01A80
:101F7000C008000440F0020000F080FD60682368A3
:101F8000C01A18BF012005B0BDE8F08F32880233B7
:101F9000C2F383121344B6E7C4F804E005B0BDE809
:101FA000F08FBDF806307348C3F3891ABAF1500FA9
:101FB000D046A8BF4FF0500868F38F1308F108010E
:101FC000ADF8063007F0D6FCC6F3C2060746002877
:101FD000BAD025EA090B0BF1010B07F02DFD4FEAF2
:101FE0008B0B0023082201A9384607F04BFDD8458A
:101FF00040F28D80BBF1000F40F0988042460823EC
:102000005D49384607F03EFD0AF1030809EB9808E0
:1020100044F21803E358002B40F0848044F210038C
:10202000E5580DB3DFF854A14FF00709EB685A7972
:10203000BAB11A79BDF8080002EB42015AF8200043
:1020400009FA01F2052E02EA000222FA01F208BFA3
:10205000032696423946284603D82B681B689847C2
:10206000EB681D68002DE1D1384607F0E9FC00203F
:1020700006F01EFB44F21803E3580BB9C4F80480C1
:10208000002006F02FFB79E7002005B0BDE8F08FB7
:10209000BDF804603748C6F38313062B28BF062318
:1020A000991C63F389168900ADF8046007F062FC9F
:1020B000C6F3C206074600283FF446AF07F0BCFC53
:1020C0000023082201A9384607F0DCFCBDF80430E3
:1020D00013F4707F3FD04FF0000B4FF0080A05EA71
:1020E00009010331534604EB81010422384607F00D
:1020F000C9FCBDF804300BF1010BC3F3831309F1E4
:1021000001085B450AF1040AC146E8D880E705EA00
:102110000901033104EB810142460823384607F0E8
:10212000B1FC71E7384607F08BFC27E705EA0901A7
:102130000331A8EB0B0504EB81015A463846EDB29A
:10214000082307F09FFC2A460BF108030A4938468A
:1021500007F098FC58E7C8465AE700BF0C05002076
:10216000244500208C0200200CA1030024A00300C1
:1021700058AB020054A2030018050020D40200202E
:102180002DE9F0478368D3F8944AC4F3400488B03B
:10219000CCB901AB054605AA43F2274141F26E00D6
:1021A000059401940694079402940EF067FC03468C
:1021B00080B10A2829D02846574A022111F0C0F8D8
:1021C00008B0BDE8F0870022114612F08BFD08B080
:1021D000BDE8F08703A905A8039304930EF014FA51
:1021E0000028E8D14D484E4A0499121A25F034F9D6
:1021F00005A80EF047FA0028DDD12846494A0821F3
:1022000011F09EF808B0BDE8F087474B5B88012BC2
:10221000D1D9DFF82CA1DFF82C81DAF80860434F20
:10222000204606F045FADAF80820DAF80430DAF841
:10223000009013440133A3EB0903A7EB0807012B1C
:102240004FEAD70766D83A4C0121204606F048FCF1
:10225000FFF746FA0146204606F042FC9AE80A00DB
:10226000DAF80820134401335B1A012BECD90A4039
:10227000033205236FF38913023100204AF822301C
:10228000CAF8001006F02EFA0021294806F0F2FBE9
:1022900080F31004274BBFB2A3EB0808B7EBD80FAD
:1022A00032D209F1010333400AEB830306EA09063F
:1022B000033647EA0447DF601AF826301E49022237
:1022C00062F3C5030AF826303AF826306FF3891313
:1022D0002AF826305AF8262061F39F22134601215E
:1022E00061F301036FF382034AF8262044F22002CF
:1022F0000AF826301AF80230002B3FF45CAFFFF7E3
:10230000D9FD0028FBD156E70C4940F2A31006F096
:102310000DFBC6E74946AAE72CA70200D40200201D
:102320009003002014A702008C0200200CA10300DF
:10233000284500209CA10300ECA6020090A8020002
:102340000C05002024A003002DE9F04FDFF82CB18C
:1023500083B08246002002F1030891460191DBF828
:10236000085006F0A5F9DBF80810DBF80420DBF8CC
:1023700000700A444FEA98080132D21B08F10206A5
:10238000964275D93B4C0121204606F0A9FBFFF788
:10239000A7F90146204606F0A3FB9BE80500DBF801
:1023A00008100A440132121A9642ECD80140033157
:1023B0000622064468F39F5200204BF82120CBF8F8
:1023C000006006F08FF9DBF80840B81C28400134A3
:1023D000241AA4000330A1450BEB80003AD80199E0
:1023E0004A4625F039F80021224806F043FB80F3E5
:1023F00010007A1C2A400BEB820200043D4003359A
:1024000040EA1A40D0601BF825206AF3C5020BF899
:1024100025203BF825206FF38F122BF825200BEB9E
:1024200085020220518869F38F1151801BF8252005
:1024300060F301026FF382020BF8252044F22002C0
:102440001BF802301BB1FFF735FD0028FBD103B0AC
:10245000BDE8F08F019E2246314624F0FDFF334651
:1024600023441946A9EB0402034824F0F5FFBAE718
:1024700038469BE728450020180500200C05002061
:102480002DE9F84F404C8046002093469A468946F5
:10249000A66806F00DF9A268636827681344013343
:1024A000DB1B032B6DD8394D0121284606F018FBA4
:1024B000FFF716F90146284606F012FB94E80A00D9
:1024C000A268134401335B1A032BEDD90A4003328F
:1024D0000220052360F3891344F8223004310020E0
:1024E000216006F0FFF8BA1CFB1C3240334004EBBD
:1024F000820204EB830300212448C2F80CB0C3F825
:102500000CA006F0B7FA80F3100A214B214A4FEADB
:1025100018459B1AB5EBD30F2DD27B1C334004EB2F
:1025200083033E40033645EA0A45DD6014F8263051
:1025300068F3C50304F8263034F82630022262F32B
:10254000891324F8263054F8262069F39F22134675
:10255000012161F301036FF3820344F8262044F262
:10256000200204F82630A35C1BB1FFF7A3FC00286F
:10257000FBD1BDE8F88F084940F2A31006F0D6F968
:10258000CBE73946A2E700BF0C0500202845002014
:102590009CA1030024A0030090A802002DE9F84F9D
:1025A000434C8046002093469A46A668894606F02A
:1025B0007FF8A2686368276813440133DB1B042B90
:1025C00073D83C4D0121284606F08AFAFFF788F8B7
:1025D0000146284606F084FA94E80A00A2681344EB
:1025E00001335B1A042BEDD90A4003320523032083
:1025F000194460F3891344F8223000202160BD1C87
:1026000006F070F8FA1C3B1D3540324004EB85059E
:1026100004EB8202334004EB8303C5F80CB00021C5
:10262000C2F80CA023480A9ADA6006F023FA80F375
:10263000100A214B214A4FEA18459B1AB5EBD30FDC
:102640002DD27B1C334004EB83033E40033645EA26
:102650000A45DD6014F8263068F3C50304F8263017
:1026600034F82630032262F3891324F8263054F814
:10267000262069F39F221346012161F301036FF3C2
:10268000820344F8262044F2200204F82630A35C9A
:102690001BB1FFF70FFC0028FBD1BDE8F88F0849FC
:1026A00040F2A31006F042F9CBE739469CE700BFA1
:1026B0000C050020284500209CA1030024A0030055
:1026C00090A802002DE9F04F85B04A4C0E9DA668F7
:1026D00002958DE80C008046994600200F9B0393DD
:1026E00092468B4605F0E4FFA268636827681344AE
:1026F0000133DB1B052B7AD83F4D0121284606F01C
:10270000EFF9FEF7EDFF0146284606F0E9F994E8F7
:102710000A00A268134401335B1A052BEDD90A4065
:1027200003320420052360F389130631002044F8A6
:102730002230FD1C216005F0D5FFB81C3A1D304049
:10274000354004EB800004EB85057B1D324004EB33
:1027500082023340C0F80CA004EB8303C5F80C9050
:102760000E9DD56000210F9A2348DA6006F082F9A9
:1027700080F31009214B224A4FEA18459B1AB5EB0A
:10278000D30F2ED27B1C334004EB83033E40033631
:1027900045EA0945DD6014F8263068F3C50304F8FE
:1027A000263034F82630042262F3891324F82630C8
:1027B00054F826206BF39F221346012161F3010395
:1027C0006FF3820344F8262044F2200204F82630F6
:1027D000A35C1BB1FFF76EFB0028FBD105B0BDE881
:1027E000F08F084940F2A31006F0A0F8CAE7394676
:1027F00095E700BF0C050020284500209CA10300A0
:1028000024A0030090A802002DE9F04F87B04F4CA0
:1028100002939946119B109D04938046129B01924E
:10282000002092460593A66803958B4605F040FF6D
:10283000A2686368276813440133DB1B062B00F290
:102840008380434D0121284606F04AF9FEF748FFF0
:102850000146284606F044F994E80A00A2681344A9
:1028600001335B1A062BEDD90A40033205230731E9
:1028700063F38913002044F822303D1D216005F0E8
:1028800031FFB91C07F1030E7A1DBB1D31400EEA62
:10289000060E3540334004EB810104EB8E0E04EB51
:1028A0008505324004EB820204EB830C109BC1F8D7
:1028B0000CA0CEF80C90EB60119BD3600021129B12
:1028C0002348CCF80C3006F0D5F880F31009214BE2
:1028D000214A4FEA18459B1AB5EBD30F2ED27B1C29
:1028E000334004EB83033E40033645EA0945DD608F
:1028F00014F8263068F3C50304F8263034F826307F
:10290000052262F3891324F8263054F826206BF34D
:102910009F221346012161F301036FF3820344F800
:10292000262044F2200204F82630A35C1BB1FFF7F6
:10293000C1FA0028FBD107B0BDE8F08F074940F28B
:10294000A31005F0F3FFCAE739468DE70C05002018
:10295000284500209CA1030024A0030090A80200A9
:102960002DE9F047DFF810A1074600209046894680
:10297000DAF8085005F09CFEDAF80820DAF804309E
:10298000DAF80060134401339B1B022B69D8364CE4
:102990000121204606F0A4F8FEF7A2FE01462046DB
:1029A00006F09EF89AE80A00DAF80820134401338A
:1029B0005B1A022BECD901200A40033240F00403D9
:1029C00060F389134AF8223003310020CAF800105E
:1029D00005F088FEB31C2B400AEB8303002122483C
:1029E000C3F80C8006F046F880F310081F4B204A0D
:1029F0003C0C9B1AB4EBD30F2DD2731C2B400AEB6B
:102A000083033540033544EA0844DC601AF8253076
:102A100067F3C5030AF825303AF82530012161F340
:102A200089132AF825305AF8252069F39F22134686
:102A300061F301036FF382034AF8252044F2200278
:102A40000AF825301AF802301BB1FFF733FA0028D4
:102A5000FBD1BDE8F087074940F2A31005F066FFFF
:102A6000CBE73146A7E700BF284500209CA1030023
:102A700024A0030090A802000C0500202DE9F047D7
:102A8000DFF8FC90074600208846D9F8085005F08A
:102A90000FFED9F80820D9F80430D9F800601344A3
:102AA00001339B1B012B61D8314C0121204606F0DC
:102AB00017F8FEF715FE0146204606F011F899E8D2
:102AC0000A00D9F80820134401335B1A012BECD912
:102AD0000A40033205236FF3891349F8223002318B
:102AE0000020C9F8001005F0FDFD0021204805F088
:102AF000C1FF80F3100A1F4B1F4A3C0C9B1AB4EB1A
:102B0000D30F2DD2731C2B4009EB830335400335C3
:102B100044EA0A44DC6019F8253067F3C50309F874
:102B2000253039F825306FF3891329F8253059F805
:102B3000252068F39F221346012161F301036FF3FF
:102B4000820349F8252044F2200209F8253019F8BB
:102B500002301BB1FFF7AEF90028FBD1BDE8F087CA
:102B6000064940F2A31005F0E1FECBE73146AFE79E
:102B7000284500209CA1030024A0030090A8020087
:102B80000C0500202DE9F04F8368D3F8944AC4F374
:102B9000400489B014BBB04BB049B14E0693C91A7A
:102BA00089080791054602AA6B4643F2274141F284
:102BB0006E000596029400940394049401940DF021
:102BC0005DFF064688B10A2800F0AA802846A54A7B
:102BD000022110F0B5FB09B0BDE8F08F00221146CC
:102BE00012F080F809B0BDE8F08F02A805A90DF039
:102BF00005FE9D4B5B88022B80460AD8B8F1000F7A
:102C0000E4D12846994A082110F09AFB09B0BDE8A2
:102C1000F08FDFF874B2DFF874A2DBF80870944C20
:102C2000304605F045FDDBF80820DBF80430DBF822
:102C3000009013440133A3EB0903A4EB0A04022B15
:102C40004FEAD4046AD88B4E0121304605F048FF84
:102C5000FEF746FD0146304605F042FF9BE80A00BC
:102C6000DBF80820134401335B1A022BECD9012056
:102C70000A40033240F0040360F38913033100205B
:102C80004BF82230CBF8001005F02CFD09F10203BF
:102C90003B400BEB830300217648C3F80C8005F022
:102CA000E9FE80F31006744BA4B2A3EB0A0AB4EB5E
:102CB000DA0F80F0C38009F101033B400BEB830383
:102CC00007EA0907033744EA0644DC601BF82730AB
:102CD0006A48032262F3C5030BF827303BF827301C
:102CE000012161F389132BF827305BF8272060F36B
:102CF0009F22134661F301036FF382034BF82720F1
:102D000044F220020BF827301BF80230002B3FF46E
:102D100075AFFFF7CFF80028FBD16FE74946A6E76C
:102D200002A805A90DF0D4FC4F4B5B88022B80460E
:102D30007FF664AFDFF850B14D4BDFF85091DBF810
:102D400008702046A3EB090405F0B2FCDBF808206C
:102D5000DBF80430DBF800A013440133A3EB0A03D3
:102D6000022B4FEAD40475D8424E0121304605F0BB
:102D7000B7FEFEF7B5FC0146304605F0B1FE9BE814
:102D80000A00DBF80820134401335B1A022BECD94C
:102D900001200A40033240F0040360F38913033139
:102DA00000204BF82230CBF8001005F09BFC0AF114
:102DB00002033B400BEB830300212E48C3F80C8039
:102DC00005F058FE80F310062B4BA4B2A3EB0909C3
:102DD000B4EBD90F38D20AF101023A400BEB820270
:102DE00007EA0A03033344EA0644D4601BF82320AD
:102DF000234C032161F3C5020BF823203BF8232069
:102E0000012060F389122BF823205BF8231064F370
:102E10009F210A4660F301026FF382024BF82310F0
:102E200044F220010BF823201BF80130002B3FF463
:102E3000E5AEFFF73FF80028FBD1DFE6114940F28D
:102E4000A31005F073FD36E70E4940F2A31005F01C
:102E50006DFDC0E751469BE7D4020020900300209F
:102E60006E102734D0A702008C020020B8A7020001
:102E70000CA10300284500209CA1030050A70200DC
:102E800084A7020090A802000C05002024A00300E3
:102E90002DE9F04144F21003314DEC580646002074
:102EA0005CB1E3681A79824204D14DE0DB681A799B
:102EB000824249D01B68002BF8D1F26844F210031B
:102EC0001071EA58002A46D0D468F2682468146069
:102ED000EB58DB681E60234A234B9B1ADB0838D073
:102EE000224D234C02EBC30E4FF0070CF768D37949
:102EF00097F804802F688B4208EB480828BF0B46E0
:102F000003FA08F37B400CFA08F803EA08037B4055
:102F1000C3F3C207C3F38218474538BF474603F0DF
:102F20000708474538BF4746C3F34228474502F1E3
:102F3000080238BF47469645678045F8043B04F1D0
:102F40000404D3D1BDE8F08101300A28A8D14FF0A4
:102F5000FF30BDE8F081EE50F3681A60BBE700BFB8
:102F60000C05002024A003009CA10300D402002033
:102F70001802002038B544F21001094B44F2200237
:102F80005C5801259D544CB1E3685D71236820466F
:102F90005B689847E3681C68002CF5D138BD00BF1A
:102FA0000C0500202DE9F04784B01D460C9C002341
:102FB00094F80C802373EB8881460E461746002B4D
:102FC0003BD1297A05290FD06B7A002B3DD1404B9C
:102FD000A88853F821A00021FEF7E4FE52460346DC
:102FE0003C49204605F0E4FE062F0FD8DFE807F045
:102FF000484D535A04633900F168B06896E80C00F4
:10300000019100904946204605F0D2FE2B7A052B0F
:1030100005D06B7A5BB93049204605F0C9FE2046E1
:1030200005F0B2FE84F80C8004B0BDE8F0872B4AAE
:103030002B49204605F0BCFEEDE7284A00922949BD
:10304000294A204605F0B4FEBBE7A888FEF7D4FE67
:10305000264B234953F82020204605F0A9FE297A63
:10306000B5E77069316996E80C000390B068F768BD
:1030700002918DE881004946204605F099FEC5E79A
:103080004946204605F094FEC0E73268494620468E
:1030900005F08EFEBAE7494696E80C00204605F09A
:1030A00087FEB3E7B16896E80C00204600914946D8
:1030B00005F07EFEAAE7B068F768316996E80C0073
:1030C00002918DE881004946204605F071FE9DE79A
:1030D0004CAE020040AE0200C4A6020038AE0200B0
:1030E000847B030020AE020018AE0200E0AD0200B7
:1030F000082900D970472DE9F04F1C4617460023D8
:10310000227B237385B0FB88039206460D46002B75
:1031100076D1397A05290FD07B7A002B78D1424BB2
:10312000B88853F821800021FEF73CFE4246034652
:103130003E49204605F03CFEDFF810A1DFF8109173
:103140004FF000084545494620462ED916F808207C
:1031500008F1010805F02CFEB8F1080FF2D134494E
:10316000DFF8F0A0DFF8F080DFF8F090204605F0FF
:103170001FFE4FF0000B10E0D9F800101144497801
:1031800011F0970F08BF2E22414620460BF1010B8C
:1031900005F00EFEBBF1080F1AD05D450FD916F8E9
:1031A0000B207E2AE8D92E22EEE708F101085146CD
:1031B000204605F0FDFDB8F1080FC3D1CFE7514619
:1031C00020460BF1010B05F0F3FDBBF1080FE4D134
:1031D0003B7A052B01D07B7A63B91649204605F06E
:1031E000E7FD204605F0D0FD9DF80C30237305B0B7
:1031F000BDE8F08F104A1149204605F0D9FDECE7F3
:103200000D4A00920E490F4A204605F0D1FD80E795
:10321000B888FEF7F1FD0C4B084953F820202046F2
:1032200005F0C6FD397A7AE74CAE020040AE0200E6
:1032300010AE0200C4A6020038AE0200847B030078
:1032400020AE020018AE0200E0AD02000CAE02009B
:1032500004AE0200DC9A030014AE02007C010020E0
:10326000032810B5044603D90E493A2005F05EFB49
:103270000D4B1C5D2F2C234604D81F2C07D84FF074
:10328000A04207E009494FF4F37005F04FFB084AEC
:1032900004F01F03D2F80405D840C04300F0010039
:1032A00010BD00BF98AE020090AF020014AF020044
:1032B00000030050032810B5044603D90F494120EC
:1032C00005F034FB0E4B1C5D2F2C224608D81F2C1A
:1032D0000BD84FF0A04101239340C1F80C3510BD2D
:1032E00008494FF4F37005F021FB04F01F02064972
:1032F00001239340C1F80C3510BD00BF98AE020009
:1033000090AF020014AF020000030050032810B574
:10331000044603D90F49472005F008FB0E4B1C5DFE
:103320002F2C224608D81F2C0BD84FF0A041012388
:103330009340C1F8083510BD08494FF4F37005F00B
:10334000F5FA04F01F02064901239340C1F808353D
:1033500010BD00BF98AE020090AF020014AF020093
:103360000003005030B44FF0A043094940254FF40A
:1033700080744FF400704FF48052C3F80855C3F8BE
:103380000845C1F80805C3F8082530BC704700BFE0
:103390000003005030B44FF0A043094940254FF4DA
:1033A00080744FF400704FF48052C3F80C55C3F88A
:1033B0000C45C1F80C05C3F80C2530BC704700BFA4
:1033C00000030050032810B5044603D910495F20BC
:1033D00005F0ACFA0F4B1C5D2F2C204604D81F2C97
:1033E00007D84FF0A04107E00B494FF4F37005F008
:1033F0009DFA0A4904F01F00D1F8043501228240E9
:1034000022EA03001340C1F80805C1F80C3510BDCD
:1034100098AE020090AF020014AF0200000300500B
:10342000263818BF4FF0FF30704700BFC30706D4DF
:10343000830742BF2E4B0C22C3F818277047F0B405
:103440004FF08043D3F84036D90722D44FF0A04341
:1034500027490322C3F818274027C3F820274FF431
:103460008076C1F824274FF40075C3F830274FF455
:1034700080548207C3F80875C3F80865C1F8085579
:10348000C3F8084503D51A4B0C22C3F81827F0BC23
:1034900070474FF01023D3F8043303F00703072BD2
:1034A000D4D1144B0122C3F80425D3F80024002AF8
:1034B000FBD04FF010210020D1F804230D4C22F056
:1034C000070242F00402C1F80423C3F80405D4F84B
:1034D0000034002BFBD0BFF34F8F0749074BCA685E
:1034E00002F4E0621343CB60BFF34F8F00BFFDE7F0
:1034F0000003005000E0014000ED00E00400FA0588
:10350000434B1978002900F081802DE9F04F8C465B
:1035100087B00024012503E00134E4B2644560D2A1
:103520003C4B27B21E6816F837E0AEF1200305FACF
:1035300003F9394BCEF12001D3E9002325FA01F13B
:1035400049EA010905FA0EF808EA020009EA03014E
:10355000014306EBC70BDFD02F4922EA080223EA1A
:1035600009037046C1E900230AF060F916F837E054
:10357000AEF1200205FA02F201920199CEF1200388
:10358000C6B225FA03F3AEF12002194306FA02F39C
:103590000393224B0191D3E90023CDE9042305FADB
:1035A0000EF30093CEF12001039B26FA01F10B43A9
:1035B000039306FA0EF30293DDE90467DDE90023C5
:1035C00016401F4032463B46DDE90267BB4208BF5A
:1035D000B24209D00E4B013493F800C0E4B2644506
:1035E0009ED307B0BDE8F08FDBF80430002BF1D09C
:1035F0009BF80110A1F10101B1FA81F14909091A01
:10360000B1FA81F1490970469847E3E7704700BF76
:1036100048650020806500207865002070650020E6
:103620002DE9F8430646204800F032FDD0B91F4F7F
:103630000123A6F1200103FA01F5C6F12002D7E922
:10364000000123FA02F2154303FA06F404EA000229
:1036500005EA0103134307D020EA040421EA050523
:10366000C7E90045BDE8F88330460AF0DFF8104EA0
:10367000D6E9008998B148EA040849EA0509D7E97A
:10368000002314431D43C6E90089C7E90045094BDF
:10369000054819680022BDE8F84300F0A9BC28EAF3
:1036A000040829EA0509EAE750650020786500204A
:1036B000706500204C650020042A01D8072070475F
:1036C0002DE9F04182B00F460546164609F0FAFE94
:1036D000002834D01C4C1D4A1D4B1E481E49256035
:1036E00017707C1E00221E600023C0E90023C1E980
:1036F0000023E4B2EFB1DFF86C800027032601E07D
:10370000FF2C16D023B205EBC30215F833009378D3
:103710008DF80670424601A98DF804608DF80530D9
:1037200009F0DAFE013CE4B20028E9D002B0BDE8BD
:10373000F0810A4A0A48002100F048FCF6E709F047
:1037400071FE0028C6D0F1E78065002048650020A2
:103750004C65002070650020786500200135000070
:103760001CB002002136000070B50C4E33687BB1EE
:103770000B4D2B7853B100243368012113F834002A
:1037800009F0B8FF2B780134A342F5D8002070BDB2
:103790000449BA2005F0CAF8EAE700BF80650020B6
:1037A0004865002094AF020030B482B001248DF847
:1037B0000740154B9DF80750186044F20104A042E1
:1037C00059609A6014D044F20201884208D072B65F
:1037D0009DF80730002BFBD162B602B030BC7047B9
:1037E000DA60DA6812889A61DA685268DA61EEE7BC
:1037F0001A611A6992685A611A6912689A611A699B
:103800005268DA61E3E700BF8465002000B583B049
:1038100002900091019244F2010071466A4600F064
:1038200003F803B000BD00BF2DE9F043044685B0A6
:103830000E46154672B6FFF79DFBFEF73BFB0028D0
:10384000FBD144F201039C4223D044F202039C4288
:10385000294B5B880ED0002B41D1284B1B68DB071E
:1038600000D500BE2A463146204605B0BDE8F043EB
:10387000FFF79ABF002BF0D0214F22482B886A68AF
:103880002149C01BC008000440F00100FEF7F8FD0C
:10389000E3E7DFF86480B8F80230002BDDD0184B86
:1038A000D5F80890174F4846FF1AFF0806F0FEFCAF
:1038B0002B68019302963F046B68009347F0010761
:1038C00003464A4638461149FEF79EFFB8F80230D3
:1038D000002BC2D038460E49FFF7D0F8BDE7084BA1
:1038E00008480C49C01AC008000440F001003246E4
:1038F000FFF736F8B1E700BF8C020020F0ED00E0E2
:1039000024A003000CA1030020B002003CB0020080
:1039100064B0020078B0020012F0030301D0072067
:103920007047F0B4094D0A4F2B700A4D3A604C1C99
:103930002B70094F094D0A4E3880E400A4B222448E
:10394000298032601846F0BC704700BFA465002093
:10395000AC650020B4650020B0650020B265002091
:10396000A86500202DE9F047294D2B888B4202D213
:103970000920BDE8F0870646002017460C4604F0F3
:1039800097FE244B244A2548197813780088DBB227
:10399000834238BF0133C9B234BFDBB2002399423E
:1039A0001FD092F800801378DFF87890DBB298424D
:1039B00086BF0133DBB200235FFA88F80020137062
:1039C00004F090FED9F800300FFA88F24FEAC20AEC
:1039D00043F83270534406B14CB900209880BDE8DA
:1039E000F087002004F07EFE0420BDE8F0870C4B39
:1039F00028881B68314608FB0030224623F02CFD46
:103A0000D9F800309A440020AAF80440BDE8F087B5
:103A1000B0650020B4650020A4650020B2650020D8
:103A2000A8650020AC6500202DE9F047174C184D23
:103A300022782B789A4226D0DFF85C90DFF85C8001
:103A4000144FDFF85CA02378D9F800203888D8F824
:103A50000060DBB20FFA83FC02EBCC0103FB0060D9
:103A6000898852F83C3098472378BAF80020DBB2B6
:103A70009A4203F101038CBFDBB20023237022784A
:103A80002B789A42DFD1BDE8F08700BFB4650020F3
:103A9000A4650020B0650020AC650020A86500206A
:103AA000B2650020F8B5204A204B0025C2F84051ED
:103AB000C2F84451C2F84851C2F84C51C2F8005102
:103AC000C2F804511B6813B31949D2F804450A68B7
:103AD000A41A1A6824F07F44A2422F4609D8197C00
:103AE000DE69A41A154499B91EB133461A68A24278
:103AF000F5D91049104A0B7812789A420DD00F4927
:103B00000F4A41F823504FF40013C2F80031F8BDBA
:103B10001F745A6998699047E6E7531CDBB2022B81
:103B200008BF00230B70EAE700100140686700201F
:103B300064670020616700206067002058670020EC
:103B400000E100E02DE9F04FB74AB8491378097851
:103B5000994285B033D00133DBB2022B08BF00237A
:103B6000B3481370B34A0768DFF8E08252F82320A5
:103B7000D8F80010BB18002423F07F4303602546CB
:103B80002046A646A9B10B68934200F27D81CC681D
:103B9000C1F800E0D21A1844CB6934B13E1826F0BF
:103BA0007F46CD618C604E600D4619460124002988
:103BB000E9D1002C40F0A5814FF0010B05E0DFF8C2
:103BC0008C820025D8F80010AB469B4B9B4FDFF84A
:103BD000809243F0010300930E464FF0000A002D3F
:103BE0002DD0D5F804E0D5F808C02C46ED69904BEF
:103BF00093481B68AEEB030222F07F42824255D805
:103C000002EB0C032360002201206260A260E261EB
:103C10002074002E6BD03068834261D9B64603E031
:103C2000106898424CD29646DEF81C201B1A002AD7
:103C3000F6D12360E261CEF81C40002DD1D197F877
:103C400001C097F800E0F44571D0734603EB4303DD
:103C50000EF10100BA7807EBC3035FFA80FE7245EC
:103C6000187987F800E004BF4FF0000E87F800E0F5
:103C700002289A684CD003283DD00128E3D1107C5B
:103C80000028E0D1D3F80CE0C2F804E0D3F810C06B
:103C9000C2F808C014465A69E26099F800209B698E
:103CA000A361002AA3D060608646A0E7A3EB0E03C1
:103CB00023F07F4363450AD2ACEB03032360A2E702
:103CC000C01A10602360E261CEF81C40B5E7002303
:103CD000012223606360A360E36122743EB1306817
:103CE000C8F80040C31A3360E661264677E7C8F893
:103CF0000040264673E7002EA5D0002200E01E46B5
:103D0000F3693274002BFAD1C8F800301E4696E7EA
:103D10004EB1B242344603D1BDE09A4260D01C4657
:103D2000E369002BF9D100231374F4458DD1BAF166
:103D3000000F02D18E4200F09D80002E00F0C58061
:103D40003B4B404A1C68D2F80475DFF80881D6F86E
:103D500000A098F800103B1B23F07F43DD1CA9B99D
:103D60003949354B4FF48030C2F844030126C2F87C
:103D700004034FF40030C1F8800143F001030860F0
:103D800016604FF43C60984788F80060AA452CBF45
:103D900004EB0A0363192B4923F07F43C1F8403534
:103DA000D1F80425D21BDB1B22F07F4223F07F4396
:103DB00003329A420ED9204BD1F80425C1F8402590
:103DC00043F001034FF43C6098471F4B4FF400321F
:103DD000C3F80021002389F8003005B0BDE8F08F5A
:103DE000A24239D0D2F81CE01368C4F81CE0BEF13E
:103DF000000F11D03046DEF800402344CEF80030EA
:103E0000864209D0002397F800E097F801C01374A8
:103E100006464FF0010A88E7002397F800E097F87C
:103E200001C0137481E700BF606700206167002054
:103E3000646700205867002090B00200B865002039
:103E4000FEFF7F000010014000E100E068670020F5
:103E500054670020556700201346F069C8F8000039
:103E6000D8B1D3F81CE01B68C4F81CE0BEF1000F09
:103E7000C1D1C5E7BBF1000F7FF45FAF002389F824
:103E8000003005B0BDE8F08F002C3DD19B1A0B60CF
:103E90004FF0010B99E63346DFE701931C4BDFF847
:103EA0007CC003924FF0010E0291C3F808E0009B22
:103EB000CCF8000089F800E04FF43C609847D8F84F
:103EC0000000019B0299039ACBE7114D114A124C55
:103ED0004FF480334FF400310127C2F880103C4387
:103EE000C5F848334FF43C60C5F808336F60A0470D
:103EF0000A4BAF604FF43C601E60A047084B1E7039
:103F000068E7C8F8001057E6C8F80010BEE700BF21
:103F10000010014000E100E090B002006467002062
:103F2000556700202DE9F8431F4D204E204FDFF844
:103F300098804FF480334FF400324FF00109002491
:103F4000C6F8802047EA0907C5F848334FF43C60BB
:103F5000C5F80833C5F80490B847C5F808904FF481
:103F60003C60C8F80040B847124B13481349144A44
:103F70001C70144B04600C7014704FF40011C022BC
:103F8000112098701C705C70C6F8801186F815239B
:103F90003160C5F8084586F81123D5F80435C8F80E
:103FA00000302046BDE8F8830010014000E100E049
:103FB00090B002005567002068670020606700200D
:103FC00061670020B865002064670020074B9B787C
:103FD0000BB9082070473AB130B10368187C00284B
:103FE000F7D159745A61704707207047B8650020AF
:103FF0002DE9F041234CA37813B90820BDE8F081E6
:104000000028FAD0042902D80720BDE8F0814369CE
:10401000002BF2D0437C0546012B4FF000000CBF73
:104020008846804617460E4604F042FB6378A07827
:1040300021785A1CD2B2904208BF002291421AD075
:1040400003EB430304EBC30301200F499D60187188
:10405000D1F80415D9601E61C3F814809F61002057
:10406000627004F03FFB094B4FF40012C3F80021CB
:104070000020BDE8F081002004F034FB0420BDE8FE
:10408000F08100BFB86500200010014000E100E0B1
:1040900070B5184DAB780BB9082070BD0028FBD067
:1040A0004369002BF8D0002404740646204604F02F
:1040B000FFFA6A78A8782978531CDBB2984208BFC7
:1040C0002346994211D002EB420205EBC2020221C3
:1040D0002046966011716B7004F004FB064B4FF4A0
:1040E0000012C3F80021204670BD204604F0FAFA01
:1040F000042070BDB865002000E100E00378052BC6
:1041000002D0094B1B681847084BD3F88424D3F816
:10411000803413F0FF0FF4D1054BD2B2052A08BF4B
:104120001846014B1B6818476C670020007002405E
:1041300024B1020018B9084B08481B68184710B58D
:1041400040F27B20064904F0F1FB034B03481B6857
:10415000BDE81040184700BF6C67002028B102007E
:10416000A0B002002DE9F04F87B006AE002504464E
:10417000894692469B4646F8105DA84601E008F144
:104180000108626801235568214600223046A8478D
:104190000028F4D18DF806000490B8F1000F28D063
:1041A0000546064662680123576821460DF106025E
:1041B00004A8B84762680123576821460DF1070239
:1041C00004A8B8479DF807304B454FF00002214640
:1041D00004A803D1AA4510D00135EDB29DF80630F0
:1041E0006768023B7F68B8479DF806301E44B045BB
:1041F000D8D8052007B0BDE8F08F109A9DF806309A
:1042000013608BF800308BF801906168023B4D68B9
:104210000BF102022146A847002007B0BDE8F08F4D
:104220002DE9F04F85B0054606F096F8002800F01D
:104230009080564807F0F2F9044618B1204605B0C0
:10424000BDE8F08F524A534B534E1470214648221A
:10425000524834601C6023F0FDF921464822504842
:1042600023F0F8F9002D7DD095E807004D4B83E849
:104270000700002873D0002006F04CF930B18528E3
:1042800004D0494A40F25F31FFF7C0FA474DDFF8EA
:1042900010B12B7A019300261A46F3B29342D5F857
:1042A00004A0414F05F109043DD2002C3BD06178B8
:1042B00091B3A378E31818BF4FF0010913D12BE095
:1042C000B8F1080F21D80BEBC8031D60DAF8000025
:1042D0005860894509F10103D8B21DD2A3784B4437
:1042E000E31819D081461878030600F00F08E7D5C7
:1042F000B8F1080F05D939464FF4CC7004F016FB1D
:104300006178264B03EBC803DFE739464FF4CF70E3
:1043100004F00CFB6178D6E70136019AF3B29342C0
:1043200004F10304C1D30B238DF80C30BAF1000F54
:1043300026D0DAF80030DBB11C4803A998470446C0
:1043400000283FF47BAF07F00DFA204605B0BDE82A
:10435000F08F154940F2313004F0E8FA69E7144A69
:104360001A6088E70F4B124A5D601D721A6082E77F
:104370000D4940F2111004F0D9FADAF80030DBE709
:1043800009494FF4887004F0D1FAD2E7FD400000EB
:10439000156800200C68002008680020786700205D
:1043A000C06700206C670020A0B0020094B2020039
:1043B0002D4C000007F0ECB908B507F00BFB20B15D
:1043C000044940F2D13004F0B1FABDE8084008F0E9
:1043D0001FBA00BFA0B0020010B507F0F1FA88B113
:1043E0004FF0804303E0D3F83824D10709D5D3F840
:1043F00038249207F7D5064B06481B68BDE81040E5
:10440000184710BD04494FF4767004F08FFAE7E7BF
:104410006C6700202CB10200A0B0020000B583B090
:1044200002A8822300F8043D024B1B68984703B0A2
:104430005DF804FB6C67002000B583B002A88323FD
:1044400000F8043D024B1B68984703B05DF804FB7D
:104450006C67002010B50C4B1B7882B073B1012043
:1044600002F014FF044630B102A8842300F8043D92
:10447000064B1B689847204602B010BD044940F225
:10448000134004F053FAEAE7146800206C67002038
:10449000A0B002002DE9F04F824685B0002800F060
:1044A000E080DAF80430002B00F0CD801B68002B90
:1044B00000F0D180DAF800301B6823B1784940F26F
:1044C0006D5004F033FA07F07BFA002841D107F071
:1044D0006FFA00283DD09AF80820DFF8D0B1704F6D
:1044E000DFF8C08100240AF10903661C944201939D
:1044F000F6B241D224B2019B04EB44041C193CD017
:10450000002507E0B9F1080F29D80BEBC9030135E5
:104510001B68D3B96278EBB29A4226D9A2781344C9
:10452000DC4222D0E25C02F00F091206EAD5B9F1B2
:10453000080F04D939464FF4CC7004F0F7F908EBB2
:10454000C90301351B68002BE4D0112005B0BDE87C
:10455000F08F534940F2715004F0E8F9BBE7394657
:104560004FF4CF7004F0E2F9CFE79AF80820344610
:10457000661C9442F6B2BDD300240AF10903DFF8A9
:104580002C91474D474E01935FFA84F8904542D2F3
:10459000019B08EB480813EB08083CD098F8013061
:1045A000BBB398F8023018EB030318BF4FF0010BB0
:1045B00018D12EE0082F24D809EBC703C3F800A0B8
:1045C000DAF8042012685A6098F801100BF1010320
:1045D0005945DAB21BD998F802305B4418EB030353
:1045E00015D093461A78130602F00F07E2D5082F6C
:1045F00004D929464FF4CC7004F098F906EBC703B0
:10460000DCE729464FF4CF7004F090F9D4E79AF82C
:1046100008200134B8E7244C236833B1204D9A4573
:1046200025D01C682368002BF9D1C4F800A0DAF863
:1046300004300B228DF80C204BB31B68F3B15046AD
:1046400003A9984782E7164940F26B5004F06EF9CF
:10465000DAF804302AE7124940F26C5004F066F9A7
:1046600028E70F4940F26A5004F060F919E729463B
:1046700040F2975004F05AF92368D2E7084940F213
:10468000111004F053F9DAF804301B68D7E7044935
:104690004FF4887004F04AF9DAF80430CDE700BF2F
:1046A000A0B002007867002008680020C0670020E2
:1046B00070B50546002840D06B68002B43D01B68BE
:1046C000002B47D007F07CF918BB07F071F900B355
:1046D000234C22683AB1234E954227D01468626871
:1046E0000434002AF8D12B685B6823B11D4940F2DD
:1046F0000E6004F01BF91C4C22683AB1194E954229
:104700000DD0146862680434002AF8D125600020B6
:1047100070BD144940F2036004F008F9D8E731464F
:1047200040F2146004F002F92268EAE7314640F2F0
:10473000096004F0FBF82268D0E70A4940F2FF5014
:1047400004F0F4F8B8E707494FF4C06004F0EEF85D
:104750006B68B4E7034940F2016004F0E7F8B1E7A1
:1047600010680020A0B002000C68002010B50446BC
:1047700008B307F025F980B907F01AF968B1114AB2
:10478000136843B19C4202D10EE09C420BD01A68E0
:104790005368002BF9D1052010BD0B4940F2216070
:1047A00004F0C4F8EBE7043223685B681360236805
:1047B0000020586010BD044940F21F6004F0B6F8B4
:1047C000D7E700BF0C680020A0B0020008B560B1B8
:1047D000094A13780133DBB2137023B9074940F259
:1047E000716004F0A3F8002008BD044940F26E6037
:1047F00004F09CF8ECE700BF14680020A0B00200B1
:1048000010B560B1094C23782BB9094940F27B609F
:1048100004F08CF82378013B2370002010BD04497C
:1048200040F2796004F082F8ECE700BF14680020E1
:10483000A0B00200024B1878003018BF012070476A
:104840001468002000F00F03072B10B5044604D8AD
:1048500007F0F4FA204607F0C3FE2046BDE81040FA
:1048600007F02ABE08F08EBA014B1868704700BFE7
:104870000868002070B4114B1E68A6B1357A75B176
:10488000737A834206F1090210D0002303E012F884
:10489000034F84420BD00133DBB29D42F7D1336822
:1048A0001E68002EEAD1304670BC704700230029F4
:1048B000F9D030460B7070BC704700BF086800200C
:1048C00070B515460446A0B16368C3B11B6823B137
:1048D00029462046BDE8704018470C4940F21110A7
:1048E00004F024F86368294620461B68BDE8704040
:1048F0001847064940F20F1004F018F8E4E703499E
:104900004FF4887004F012F86368DFE7A0B002008B
:1049100000F00F03082B01D910207047020670B574
:104920004CBF104A104A02EBC3031D684DB16B68BF
:104930000C4683B11B6833B121462846BDE8704060
:104940001847102070BD094940F2111003F0EEFF26
:104950006B681B68F0E705494FF4887003F0E6FFC9
:104960006B68E7E778670020C0670020A0B002000E
:1049700070B5144B1C681CB30546134E07E029465E
:1049800020469847062813D123681C68C4B1636881
:104990007BB11B68002BF2D1314640F2111003F0BD
:1049A000C5FF636829461B68204698470628EBD058
:1049B00070BD31464FF4887003F0B8FF6368E8E7D4
:1049C000062070BD08680020A0B0020038B50D4672
:1049D000044607F07BF808B9082038BD044B1B7863
:1049E000022BF9D129462046BDE8384007F090B89F
:1049F0001568002038B50D46044607F067F808B979
:104A0000082038BD044B1B78022BF9D129462046DB
:104A1000BDE8384007F042B915680020F8B5436892
:104A20009B6804460E4615461BB19847062800D0E1
:104A3000F8BD237AB34202D33DB10720F8BD18492F
:104A400040F2F92003F072FFF6E7237AB34222D94D
:104A5000093406EB460634446778F7B12B463A46EC
:104A600014E0A3786219D65C06F00F03072B05D873
:104A7000304607F0E3F9304607F0B2FD3046013525
:104A800007F01AFDEBB29F4207D962789A42E8D844
:104A900000231B78FFDE6B78FFDE0020F8BD00BF2F
:104AA000A0B0020043681B6903B11847184670475D
:104AB0002DE9F84F334BD3F80080B8F1000F5FD0E9
:104AC000DFF8C4B098F808A0BAF1000F47D000276B
:104AD0003C4608F1090511E000222146404698476E
:104AE000062810D020B1594640F26A7003F01EFF2C
:104AF0000137FCB2A24505F1030530D9D8F80430DE
:104B00009B68002BE8D198F80830A34230D3A34229
:104B100022D995F80190B9F1000FE9D0002423467D
:104B20004A4614E0AB782A19D65C06F00F03072B2F
:104B300005D8304607F082F9304607F051FD30467F
:104B4000013407F0B9FCE3B29945D1D96A789A42A9
:104B5000E8D800231B78FFDE00235B78FFDED8F85F
:104B60000030D3F80080B8F1000FABD1BDE8F88F6A
:104B7000594640F2F92003F0D9FE98F80830C6E70C
:104B8000BDE8F88F08680020A0B002002DE9F047CA
:104B9000244B1F68002F43D0DFF88CA097F80890B3
:104BA000B9F1000F2CD04FF00008444607F1090579
:104BB0007B68DB6813B12146384698473B7AA342AD
:104BC00027D3A34222D96E7896B1002423463246D9
:104BD00009E0AB782A190134D05C08F0D3F8E3B2CD
:104BE0009E4205D96A789342F3D300231B78FFDEF7
:104BF00008F101085FFA88F4A14505F10305D7D84B
:104C00003B681F68002FC9D1BDE8F08700235B789F
:104C1000FFDE51464FF4467003F088FE3B7AD0E742
:104C2000BDE8F08708680020A0B002002DE9F0413F
:104C30008B4D2B680446002B00F0FB8203F06CFDCB
:104C4000052840F28C802378852B00F2EB82DFE888
:104C500013F01202B701B3023C028C028C009300E5
:104C6000E902B800DA00FC00E902E902E902E9021F
:104C70003601E902E902E902E902E902E902E90290
:104C8000E902E902E902E902E902E902E902E902CC
:104C9000E902E902E902E902E902E902E902E902BC
:104CA000E902E902E902E902E902E902E902E902AC
:104CB000E902E902E902E902E902E902E902E9029C
:104CC000E902E902E902E902E902E902E902E9028C
:104CD000E902E902E902E902E902E902E902E9027C
:104CE000E902E902E902E902E902E902E902E9026C
:104CF000E902E902E902E902E902E902E902E9025C
:104D0000E902E902E902E902E902E902E902E9024B
:104D1000E902E902E902E902E902E902E902E9023B
:104D2000E902E902E902E902E902E902E902E9022B
:104D3000E902E902E902E902E902E902E902E9021B
:104D4000E902E902E902E902E902E902E902E9020B
:104D5000E902260157017A01B001F5018C004149B1
:104D600040F22C4003F0E2FD6DE73F4B214693E813
:104D70000500BDE8F0411047A5782B0605F00F06A9
:104D800000F1B282082E00F28D83374D05EBC60587
:104D90002B68002B00F09B836B68002B00F09D8339
:104DA000286821469847002800F00881A07800F084
:104DB0000F03013B062B00F20181BDE8F04106F034
:104DC000EBBF2A4B5B680BB1082098472D68002D7C
:104DD00000F0F480234E07E02846214698472B68D0
:104DE0001D68002D00F06C826B68002B00F0328390
:104DF0001B68002BF0D1314640F2111003F096FDF4
:104E00006B681B68E8E7194B5B680BB10920984792
:104E10002D68002D00F0D280124E07E02846214672
:104E200098472B681D68002D00F04E826B68002BA0
:104E300000F0F3821B68002BF0D1314640F21110D4
:104E400003F074FD6B681B68E8E7084B5B680BB107
:104E50000A2098472D68002D00F0B080014E0FE029
:104E600008680020A0B00200C06700206C67002026
:104E70002846214698472B681D68002D00F02282A5
:104E80006B68002B00F0B4821B68002BF0D1314618
:104E900040F2111003F04AFD6B681B68E8E79E4C76
:104EA0002378062B00F03182072B02D0052B40F02F
:104EB000858006F0DFFD02232370BDE8F081974B6B
:104EC0005B680BB10F2098472D68002D76D0944E6B
:104ED00007E02846214698472B681D68002D00F002
:104EE000ED816B68002B00F07C821B68002BF0D1F9
:104EF000314640F2111003F019FD6B681B68E8E7BA
:104F0000884B894993E8050090472C68002C00F0F5
:104F10009681834E844D07E02046294698472368B2
:104F20001C68002C00F08B816368002B00F0A082CD
:104F30001B68002BF0D1314640F2111003F0F6FC53
:104F400063681B68E8E7744EFFF720FE07F084FBF8
:104F50003278931EDBB2062B05D87449CB5C13B1B3
:104F600005F0B2FA3278022A00F0CC81082A00F06B
:104F7000C9812C6800233370002C00F00582684F33
:104F80006B4D07E020462946984723681C68002C93
:104F900000F0FA816368002B00F071821B68002B1F
:104FA000F0D1394640F2111003F0C0FC63681B6871
:104FB000E8E7594E3378032B00F0AF81BDE8F0816C
:104FC000554EFFF7E3FD01F0B9FD3278931EDBB2D9
:104FD000062B00F27B815549CB5C002B00F07681DB
:104FE000022A03D0082A01D006F044FD4B4B5B682F
:104FF000022232700BB1012098474A4B214693E8B8
:10500000050090472D68002DD8D0454E07E0284672
:10501000214698472B681D68002D00F0CE816B68F3
:10502000002B00F0D7811B68002BF0D1314640F2F5
:10503000111003F07BFC6B681B68E8E7364E337891
:10504000032B00F0888106F0D5FC0028B6D032781A
:10505000931EDBB2062B40F23482364805F0F2F99B
:105060003278022A00F02482082A00F021820623E6
:105070003370BDE8F081284B1B78032B00F067816B
:10508000082B00F06481254B5B680BB1002098472A
:10509000294B1D68002D91D0214E07E0284621465E
:1050A00098472B685D68002D00F08B816B68002BA2
:1050B00000F0A5811B68002BF0D1314640F21110A1
:1050C00003F034FC6B681B68E8E7134E3378082B59
:1050D00000F005819A1ED2B2062A40F2DD81154801
:1050E00005F0B0F93378022B00F0D381082B00F0E3
:1050F000D08105233370094B5B680BB103209847BF
:10510000084B214693E8050090472D68002D3FF499
:1051100055AF034E1AE000BF156800206C670020F1
:10512000A0B00200C067002030B1020098B00200B9
:1051300034B10200240000200C68002028462146DB
:1051400098472B681D68002D00F039816B68002B93
:1051500000F039811B68002BF0D1314640F211106C
:1051600003F0E4FB6B681B68E8E7AF4B5B680BB1CF
:1051700003209847AD4BAE4993E8050090472C6853
:10518000002C00F08280AB4EA94D06E02046294657
:10519000984723681C68002C77D06368002B00F0C8
:1051A00060811B68002BF1D1314640F2111003F0F1
:1051B000BDFB63681B68E9E79F4E3278931EDBB244
:1051C000062B05D89D49CB5C13B105F07DF93278EB
:1051D000022A00F09480082A00F09180924B5B68CC
:1051E000032232700BB1022098472D68002D3FF446
:1051F000BCAD904E07E02846214698472B681D68B5
:10520000002D3FF4B2AD6B68002B00F0FF801B68EF
:10521000002BF0D1314640F2111003F087FB6B6890
:105220001B68E8E7834940F22650BDE8F04103F0EF
:105230007DBB804940F2254003F078FBFEE47A4CC8
:1052400063680BB10D209847FFF7A0FC01F080FCCC
:105250007B4B1B68002B5ED00120774E06F068FB6D
:105260003278931EDBB2062B05D87449CB5C13B1A0
:1052700005F02AF93278022A00F00881082A00F0A5
:10528000058101233370BDE8F0816B4E3378062B26
:1052900021D0082B0ED09A1ED2B2062A40F20B81E2
:1052A000684805F0CFF83378022B03D0082B01D0E3
:1052B00006F0E0FB02233370BDE8F081BDE8F08129
:1052C000BDE8F081BDE8F081BDE8F0815D4805F002
:1052D000B9F8327884E607233370BDE8F081022301
:1052E000337006F0D1FB06E7082E04D951494FF47C
:1052F000CC7003F01BFB544D05EBC60548E506F0EA
:10530000AFFB6BE706F0ACFB33E606F0B3FB08231C
:105310002370BDE8F081207A9FE707F061FC002848
:105320003FF44CAE3278931EDBB2062B05D84349CE
:10533000CB5C13B105F0C8F83278022A00F0D480B3
:10534000082A00F0D18004233370BDE8F0813F4883
:10535000FFF76CFC97E607F043FC00283FF473AEC0
:105360003278931EDBB2062B05D83449CB5C13B1DF
:1053700005F0AAF83278022A00F0B980082A00F075
:10538000B680042333705EE6284B314993E805006C
:105390009047254B5B680BB10E2098473378023B52
:1053A000DBB2062B3FF60AAE244AD35C002B3FF457
:1053B00005AEBDE8F04105F087B8BDE8F081BDE875
:1053C000F081BDE8F08131464FF4887003F0AEFA09
:1053D0006B68BFE631464FF4887003F0A7FA6B683C
:1053E00021E631464FF4887003F0A0FA6B687CE543
:1053F00031464FF4887003F099FA6B6844E5314602
:105400004FF4887003F092FA6B6853E631464FF41C
:10541000887003F08BFA6B68F9E631464FF48870B8
:1054200003F084FA6B6805E56C670020C067002014
:105430003CB10200A0B002001568002098B0020044
:105440000C680020240000207867002038B102009A
:1054500034B1020031464FF4887003F067FA6B688C
:10546000C6E431464FF4887003F060FA636898E64A
:1054700031464FF4887003F059FA636858E53946AD
:105480004FF4887003F052FA636887E506F0E8FA93
:10549000F7E606F0E5FA2CE616498A5C002A7FF466
:1054A00022AE1CE614494FF4CF7003F03FFA6CE4CF
:1054B00006F0D6FADBE50F498A5C002A7FF4F4AEE9
:1054C000EEE60C49CB5C002B7FF4CBADC5E50A4979
:1054D00040F2025003F02AFA5EE4074940F203501A
:1054E00003F024FA6B685BE406F0BAFA2BE706F0E7
:1054F000B7FA46E798B00200A0B002004360CA695C
:10550000934205D901F1280202608B6700207047A1
:105510008A6902600B67CB61002070474360CA69EB
:10552000934205D901F12802026000208B67704781
:105530008A6910B40260C8698C690A6FC01A1C4479
:105540001A44C86100308C6118BF01200A675DF8F9
:10555000044B70472DE9F047DA4E0D46097A317059
:1055600082B00446002800F068822168B1F5517FBE
:1055700000F08C8456D940F25630814200F0A98464
:1055800000F24281B1F5537F00F0978440F2A4818C
:1055900040F25130814200F0518400F2588240F2D2
:1055A0004F30814200F0D583B1F5547F40F0408305
:1055B00001210027002A00F0C1852079D0558B42B7
:1055C0004FF00200207140F2BF83074601F1010E47
:1055D000022073455754207140F2A7830EF1010158
:1055E00002F80E008B424FF00500207140F2C38399
:1055F00001F1010E242773455054277140F2B18305
:105600000EF1010106208B4202F80E70207140F26B
:10561000AD834F1C5054BB42287D207140F28083E3
:10562000791CEDE140F22630814200F0378400F22F
:105630009B8040F21630814200F0548440F2998100
:1056400040F21930814200F00F8400F2D78240F21C
:105650001730814200F0B483B1F5467F40F0E88214
:10566000002A00F02B8621794FF0010E0027002040
:105670007345D155207140F267840EF1010702F89D
:105680000E009148002101703078884240F2448435
:105690000921BB42217140F2E784781C002A00F006
:1056A0009D852179D15583424FF00401217140F24B
:1056B000B584471C11548449287A0978884240F2FD
:1056C000D18201EB410005F10901DFF800E211F898
:1056D00000C084F804C00144BB42CEF8001040F280
:1056E0009384791C002A00F05F852079D0558B4285
:1056F0004FF00000207140F26D844F1CDFF8CCE1C8
:105700005054DEF80000BB424178217140F24984D8
:1057100007F10108D1550178287D884200F097846F
:10572000A87D884240F04C840A214345217140F213
:105730004B8508F10100002A00F08885217902F8E4
:10574000081083424FF00001217140F292848E468E
:10575000471C0021BB4202F800E0217140F2638443
:1057600007F10108D15596E140F23330814200F053
:10577000AC83B1F54D7FC0F08C80B1F54F7F00F068
:105780007B8340F2748240F24230814200F04882D2
:1057900000F2B68240F24130814240F0498201215C
:1057A0000027002A00F08B842079D0558B424FF0DF
:1057B0002400207140F2538486464F1C0020BB42D7
:1057C00002F801E0207140F2248407F1010E10215B
:1057D0007345D055217140F2078408460EF1010748
:1057E0000121BB4202F80E00217140F2E483084619
:1057F00007EB010E05217345D055217140F2CC8392
:1058000008460EF101077EE040F27230814200F05E
:10581000378340F2DF8040F28330814200F017830B
:10582000B1F5617FC0F0338240F28930814200F0EF
:10583000F48140F28E30814200F0EF81B1F5617F5A
:1058400040F0F681002A00F05E85217901270020D2
:1058500011541E49287D09680978884200F0C983DF
:10586000A87D884240F033820021BB42217140F282
:105870001684394601370AB120795054DFF854E0D4
:1058800013489EF8001000780131C9B28EF800105C
:10589000CAE0B1F54B7F00F0B08200F2EA8040F23E
:1058A0002730814200F07D82B1F54A7F40F0C0810F
:1058B000002A00F022850548217900684FF0010890
:1058C000002727E718680020176800201C680020C0
:1058D000166800201968002040F24930814200F02B
:1058E000678200F2FD8040F24530814200F0D982AB
:1058F000B1F5527F40F09C81002A00F0F1842079BC
:1059000001274FF0000E2421BB4202F80E00217146
:1059100040F22E83084607F1010E01217345D05550
:10592000217140F21B8308460EEB01070321BB42A5
:1059300002F80E00217140F20C83781CD15583428D
:10594000AF7D277140F2E38200F1010E042173451F
:105950001754217140F2EE8208460EF1010724210E
:10596000BB4202F80E00217140F242820846791CC7
:1059700024E640F21330814200F0D382B1F5457F36
:1059800080F0BF80002900F0028240F21230814294
:1059900040F04E81002A00F02E8421791170012BF5
:1059A0004FF00B01217140F2148403274FF0020ED7
:1059B000012011547345287D207140F2108302218B
:1059C000BB4202F80E00217140F2F082084607F156
:1059D000010CA4E040F25930814200F0918200F2C3
:1059E000BA8040F25730814200F0CA81B1F5567F4B
:1059F00040F01E8101210027002A00F0C683207993
:105A0000D0558B42A87D207140F275824F1C5054B6
:105A1000C8490968DFF82CC3DFF824E348788CF81C
:105A2000000000218EF800108142C0F00681C248BB
:105A300001780131C9B2017026E6C04940F20F3049
:105A40008DE80C0002F072FF9DE80C008DE540F23D
:105A50005230814200F0E98140F25530814240F0FD
:105A6000E780002A00F0988320794FF0010E002192
:105A7000C0E540F22D30814200F0EF8140F22E303F
:105A8000814240F0D580002A00F0308421794FF027
:105A900001080020115400214345217140F2018189
:105AA00008F1010712B1217902F80810DFF88482A9
:105AB00095F814E0D8F800100878864500F00081C9
:105AC00095F816E08645A5D09C4940F262308DE8F5
:105AD0000C0002F02BFFD8F800109DE80C0099E7AD
:105AE00040F24A30814200F07B8140F24B308142EB
:105AF00040F09E80002A00F0D78321790120002702
:105B00001CE700F0658140F21530814240F0908042
:105B1000002A00F0E78320794FF0010C00270221D2
:105B20006345D055217140F2328208460CF1010ED6
:105B30000221734502F80C00217140F214820EF12B
:105B4000010702F80E10BB42697E217140F2F78115
:105B500007F1010E8BE540F26D30814200F07A8151
:105B600040F26E30814263D1002A00F0A582217993
:105B70004FF0010800201154DFF8B8917049D9F8AE
:105B800000A00F78BAF1000F00F07B839AF80110A3
:105B9000B94264D99AF8021057444345795C21719F
:105BA00040F2A98008F1010712B1217902F808102A
:105BB000D9F80010287D0978884200F03982A87D44
:105BC000884240F0DA810221BB42217140F2E78233
:105BD000394601370AB1207950544021BB42217126
:105BE00064D9781C002A00F04E822179D155834275
:105BF0004FF0000121715ED9471C29E6B1F5487FBD
:105C000000F0578140F22130814211D1002A00F08A
:105C100071832179012700204CE5012700212AE624
:105C2000002A00F0458394F804E001270021C5E52F
:105C30000020206002B0BDE8F0870721BB4221713F
:105C40004FD9781C002A00F02F822179D155834248
:105C50004FF00501217149D900F101088BE70023BC
:105C60001B78FFDE334A002313601B78FFDEB1F59B
:105C70004D7F4DD040F235308142D9D1002A00F01D
:105C8000358300272179D1554FF0010803E740F211
:105C90007730814202D0B1F55F7FC9D10127002161
:105CA00098E74FF44F7323600120C3E740F283333A
:105CB00023600120BEE74FF4617323600120B9E740
:105CC0000521BB42217140F2E581791C69E51B4940
:105CD00040F292308DE80C0002F028FE9DE80C00A6
:105CE000CCE540F26D3323600120A3E740F26E3330
:105CF000236001209EE740F272332360012099E780
:105D0000002A00F0C88220794FF0010E00275EE5DE
:105D1000002A00F0DD8294F804E00127002018E555
:105D20004FF456732360012084E740F2523323601E
:105D300001207FE71C6800201768002060B1020086
:105D4000196800201668002040F2513323600120BA
:105D500070E7002A00F0DC82207901274FF0000E66
:105D6000FDE540F256332360012063E740F25733EC
:105D7000236001205EE740F255332360012059E79C
:105D8000002A00F0C38220790127002142E4082183
:105D90002171002B7FF4FEAD40F21233236001200D
:105DA00048E7002A00F07982207901270021A5E444
:105DB000002A00F08B8220794FF0010E0027ACE51D
:105DC000002A00F09182217901274FF0000EB8E6F9
:105DD000002A00F06B82207901274FF0000EEEE5DB
:105DE000002A00F05C82207901274FF0000E9DE52B
:105DF0004FF45473236001201CE701214FF0000889
:105E0000002A00F03082207902F8080002278B4235
:105E1000277140F23381481C57548342697E2171B7
:105E200040F2108100F1010834E601214FF0000E2C
:105E3000002A00F090812079FFF7D2BB002A00F001
:105E4000698227794FF0010E0021FFF7C1BB0120C5
:105E50000027C7E601200027F4E6002A00F02A8286
:105E6000277901200021D7E7002A00F05582207908
:105E700001274FF0000E02E401274FF0000811E661
:105E8000DFF8409401274FF000088DE6002A00F06B
:105E90002182207901274FF0000EA1E40121002783
:105EA00020E4002A00F0088220794FF0010E00273C
:105EB000A0E401200027FFF7F1BB002A00F00E82CA
:105EC00027794FF0010E002040E501204FF0000837
:105ED00031E401214FF0000E002A00F04A812779B9
:105EE000FFF790BB002A00F0F78120794FF0010EF8
:105EF0004FF0000C1CE640F259332360012099E674
:105F0000002A00F00C822079012700217FE54FF460
:105F10005373236001208DE640F299332360012002
:105F200088E6002A00F0BD81217902274FF0010E9A
:105F300000203EE540F24F33236001207AE64FF423
:105F400046732360012075E640F219332360012077
:105F500070E640F24B33236001206BE640F24A3397
:105F60002360012066E640F217332360012061E6DA
:105F700040F24933236001205CE6D1494FF4607060
:105F80008DE80C0002F0D2FC9DE80C0025E640F202
:105F90001633236001204DE64FF452732360012035
:105FA00048E64FF44A732360012043E640F215337C
:105FB000236001203EE640F245332360012039E6AC
:105FC000BF4940F239308DE80C0002F0AFFC9DE88B
:105FD0000C0060E540F22733236001202AE64FF4ED
:105FE00045732360012025E64FF45173236001209F
:105FF00020E6296ABB42097821713FF63AAC40F2AB
:1060000089332360012015E640F226332360012006
:1060100010E640F24333236001200BE640F22133C7
:106020002360012006E640F235332360012001E6BB
:106030000321BB4221713FF6CBAD40F277332360A1
:106040000120F7E540F22E3323600120F2E5022122
:106050004345217140F2CA8008F10101D0E640F2C7
:10606000423323600120E5E54FF4487323600120AB
:10607000E0E54FF44D7323600120DBE540F22D3362
:1060800023600120D6E5834222717FF614AE471CBF
:10609000FFF7DFBB40F2413323600120CAE540F245
:1060A0008E3323600120C5E50521834221717FF6EF
:1060B0001DAE00F101085FE54FF001085CE524200A
:1060C0008B422071CBD9013100208B422071A0D9A5
:1060D000013110208B42207186D9013101208B4281
:1060E00020717FF668AF014405208B4220717FF656
:1060F00053AF013124208B4220717FF639AF01313B
:1061000001208B4220717FF629AF014403208B428E
:1061100020717FF61EAF0131A87D20718B427FF682
:10612000F6AE013104208B4220717FF603AF4F1C85
:106130002420BB4220717FF65BAE023102208B42ED
:1061400020717FF601AE01F1010E0220734520712E
:106150007FF6EBAD014405208B4220717FF60BAE3C
:1061600001F1010E2421734521717FF6FAAD0EF184
:10617000010106208B4220717FF6F8AD4F1C287D6F
:106180002071BB427FF6CCAD0231A87D20718B42DD
:106190007FF6B1AE4F1C3BE44FF0010EE2E74FF447
:1061A0005F732360012045E58B4222717FF612AFB9
:1061B0000131444800688B42477827717FF6F1AE81
:1061C00001F10108FFF7A7BA40F233332360012041
:1061D00030E540F21333236001202BE50421834294
:1061E00021717FF61BAF471CFFF765BA4FF44B7365
:1061F000236001201EE50B21012B2171E9D9032128
:1062000002202F7D277183427FF6E9AE02208B4268
:1062100020717FF6CBAE4F1C0221BB4221717FF66D
:10622000B6AE01370221BB4221717FF69CAE013729
:10623000697E2171BB427FF682AE01370021BB42ED
:1062400021717FF681AE0137FFF71BBA83422271BD
:106250007FF60FAF01300021834221717FF6E3AE5C
:1062600000F1010817E402208B4220717FF606AF8F
:106270000131687E20718B427FF6E4AE01F10108A6
:1062800009E4114940F243108DE80C0002F04EFB86
:106290009DE80C007AE401211BE7012189E7012137
:1062A00034E702210120ACE7012135E70121ADE708
:1062B000012109E70121DCE7012115E70127BDE7FD
:1062C00060B102001C680020FCB10200012117E748
:1062D0000120C0E7012101E70127A3E7012121E710
:1062E000012107E7012797E70127A1E74FF0010800
:1062F000FFF7D1BB0127FFF7DEB90A494FF00108CC
:106300000868FFF708BA0127FFF7A3BA002135E7AD
:1063100000210CE7114616E70127FFF7B2B9012764
:10632000FFF776BB1C68002008B10320704710B54A
:106330000C46A1B1206860B1037B202B01D0062060
:1063400010BD00F10E010722183021F085F8002061
:1063500010BD6020044902F0E9FA2068ECE7024928
:106360005F2002F0E3FAE5E760B102002DE9F043B7
:106370000E4689B00546002800F09880002E00F0F7
:10638000A58033780E2B42D8DFE803F03C463C3C36
:1063900041085E414178413C3C3C3C00002D00F00E
:1063A000AA817378DA0940F0CD805B09012B2ED1E8
:1063B0003DB9A349522002F0B9FAA1495F2002F089
:1063C000B5FA2F68002F00F0E981B378202B00F098
:1063D0009E81222B1BD1B6F80730C3B9B6F8033023
:1063E00097F820203B8402F0010203F001039A4257
:1063F00099B207D0002900F0E681EB6913B1284675
:10640000022198470024204609B0BDE8F083062405
:10641000204609B0BDE8F083002D00F0D7802B683E
:10642000002B00F0CD80002403F1340220461C84B0
:106430005C62DC629C67DC67C3F88040C3F8844020
:106440005A6709B0BDE8F083002D00F05A812C7A1C
:10645000002C34D0AB7A05F1090173B3EA7AB37832
:106460008A5C9A42CED01B0600F18A80F378012B19
:10647000C8D031D3032BC5D00324C4E7002D00F0CE
:1064800096802F68002F00F08C80002407F13403E1
:106490003C8420467C62FC62BC67FC67C7F8804095
:1064A000C7F884407B6709B0BDE8F083644940F2D7
:1064B000DD2002F03BFA61E700231B78FFDE614933
:1064C00040F2431002F032FA6378FFDE5C4940F29A
:1064D000DE2002F02BFA54E72E68002E00F05581E2
:1064E000012C06F10C0254D9697B012905F10C033A
:1064F000E2D9A97B5448069205900B44B26A93F8FE
:106500000180002A6BD1F46AF36FB267C6F880305D
:10651000F267002C00F0208106F12C0393E80300C1
:1065200006F1240383E80300F262404605A9FEF762
:1065300061FA0446EB69002B3FF465AF2846002161
:10654000984760E7C3F34112002A00F0A680012AB1
:106550007FF45DAF002D00F02D812968002900F047
:106560002381B378212B7FF452AFB6F80720072A96
:106570007FF44DAF1831701C00F0F4FA044642E786
:10658000F478002C00F0AF80032C0CBF002403240F
:1065900039E72C4940F2431002F0C8F900235B7838
:1065A000FFDE2749602002F0C1F92F686DE724491A
:1065B000522002F0BBF922495F2002F0B7F960E7F0
:1065C0001F49602002F0B2F92B682CE71C495220C9
:1065D00002F0ACF91A495F2002F0A8F91FE7D6F8DB
:1065E0008490706A4A4506F1340E28BF4A467146C7
:1065F0001446774620F030FFF26FF16AA9EB0403EE
:1066000007EB040E22444FF00009B367C6F874E0AC
:10661000C6F88020C6F87C90002900F0BD8006F105
:106620002C0797E8030006F1240484E80300C6F869
:106630002C90002B00F09280B26A934215D296E023
:1066400060B10200FCB102001D55000097E8030094
:1066500084E80300B36FC6F82C90002B7ED0B26A9A
:106660009A4200F28480D6F874E0706A714620F095
:10667000F3FEB16AB26F736FC6F880100B44521A02
:10668000B2677367EB6913B1002128469847F36A34
:10669000002BDBD1736200244CE703F01F03012BB6
:1066A0007FF4B5AEB478062C7FF4B1AE05A80392A2
:1066B00000F0E4FD0DF10C0E0746F2783179CDF8CB
:1066C00000E028463B46FDF74DFD05283FF49BAE14
:1066D000039B3F2B00F29B803946701C039A00F00D
:1066E00041FA04468FE6EB69002B3FF48BAE284657
:1066F0000121984787E64C494FF4E47002F016F9FF
:106700004FE64A494FF4887002F010F99FE6B6F858
:106710000720072A7FF47BAE002F7DD03B73B6F8AD
:1067200007300024DBB27B7320460E3706930794B4
:10673000059701F0BDFF204605A9FEF747F904467D
:1067400030B93B4B049503A9039300F083FD044645
:10675000002001F0C7FF56E67462EBE6736A002B77
:1067600099D0404605A9FEF745F90446E2E61A46E7
:10677000716F706A20F070FEB16FB26A736AF16770
:10678000521A0B44B2627362E9E72749602002F0B3
:10679000CDF82E682C7AA3E671627CE7224960204E
:1067A00002F0C4F82F6810E61F49602002F0BEF81E
:1067B0002968D6E61C49522002F0B8F81A495F2031
:1067C00002F0B4F8C9E6EB6913B1032128469847F3
:1067D0002B7A012B7FF6DDAE6B7B05F10C04002BD1
:1067E0003FF46BAEAB7BE05C06F008F92B7A012B33
:1067F0007FF6CFAE6B7B012B7FF65EAEAB7B1C448E
:10680000607806F0FBF8002407F1340341E60649FE
:10681000C92002F08BF85FE70349602002F086F898
:106820002F68B3787AE700BF60B10200FCB10200C4
:106830002963000030B50D4687B0044600282ED0ED
:10684000236823B31B8CDB0702D4082007B030BDBC
:10685000237A012B11D9637B04F10C01ABB1A37B2B
:10686000C85C039591060CBF0123002303A9049281
:106870000593FEF7ABF807B030BD0C4940F243106A
:1068800002F054F800235B78FFDE1B78FFDE084936
:106890000192602002F04AF82368019AD2E7044985
:1068A00001925F2002F042F8019AC9E7FCB10200B0
:1068B00060B1020010B5044660B1236813B1D3F88B
:1068C000800010BD0649602002F030F82368D3F83C
:1068D000800010BD02495F2002F028F8EDE700BFFC
:1068E00060B10200F0B5054685B017460E4649B1C5
:1068F00015B32C68D4B1238CDB0709D408242046B7
:1069000005B0F0BD2A4940F21F4002F00FF8EFE752
:10691000002001F0CDFEA26F9AB9636A1BB3112467
:10692000002001F0DFFE204605B0F0BD20496020C8
:1069300001F0FCFF2C68DEE71D495F2001F0F6FF47
:10694000D7E7974228BF17463A46616F304620F096
:1069500083FDA36F626FC4F88070DB1B3A44A367AA
:1069600062670024DCE76662A7622A7A012A13D9EB
:10697000697B012905F10C0217D9AB7B0D49029106
:1069800013440C345878039402A9FEF733F8002816
:1069900014BF04469224C3E70749019340F2431011
:1069A00001F0C4FF019B5B78FFDE1B78FFDE00BFB8
:1069B00060B10200FD540000FCB1020000207047ED
:1069C0002DE9F04F87B04B6803900C460292002BE4
:1069D00000F09580029B402B7BD805F0D9F9E66842
:1069E000029B9E4228BF1E468246002E00F09780E2
:1069F0004FF000084746C1464FF0010BCDF8048028
:106A0000A3686168B342984628BFB04601B34246C6
:106A10000AEB070020F020FDA268E368C4F80490A8
:106A2000A2EB0802A3EB0803A6EB08064744A2600A
:106A3000E3607AB1002B2BD0A3689BB1002EDFD18D
:106A4000039AC2F800A05760584607B0BDE8F08F1F
:106A500013BBE368019A002A33D11BB99346002E79
:106A6000CED1EDE72168002940D0CDF8109003E0A9
:106A7000A36821680133A3604B6800225D6804A805
:106A80000123A8470028F3D12061002EB8D1D7E711
:106A90009B46002EB4D1D3E72046434650F8101B46
:106AA0004A6855680AEB0702A847A268E368A2EBA8
:106AB0000802A3EB0803A6EB08064744A260E360C4
:106AC00022B925685DB12A6812682260012201920C
:106AD000B0E718494FF4CB7001F028FF7DE7164965
